:100000000C9462000C948A000C948A000C948A0070
:100010000C948A000C948A000C948A000C948A0038
:100020000C948A000C948A000C948A000C948A0028
:100030000C948A000C948A000C948A000C948A0018
:100040000C94FB030C948A000C9463010C94B10192
:100050000C948A000C948A000C948A000C948A00F8
:100060000C948A000C948A000000000024002700F1
:100070002A0000000000250028002B0000000000DE
:1000800023002600290004040404040404040202DA
:100090000202020203030303030301020408102007
:1000A0004080010204081020010204081020000012
:1000B0000007000201000003040600000000000029
:1000C00000001D0311241FBECFEFD8E0DEBFCDBF5F
:1000D00011E0A0E0B1E0E6E2FBE002C005900D9285
:1000E000AA3AB107D9F712E0AAEAB1E001C01D921D
:1000F000AD35B107E1F710E0C4ECD0E004C02297C1
:10010000FE010E948D05C23CD107C9F70E9473030E
:100110000C9491050C9400001F93182F8091990165
:100120008130A1F489E061E00E9436058AE060E058
:100130000E9436058BE061E00E9436058CE060E0AD
:100140000E943605113059F184E045C08091990133
:10015000823079F489E060E00E9436058AE061E04F
:100160000E9436058BE061E00E9436058CE060E07D
:1001700012C0809199018330B1F489E060E00E945F
:1001800036058AE061E00E9436058BE060E00E945F
:1001900036058CE061E00E9436051130C9F480918B
:1001A00099018F5F18C089E061E00E9436058AE0FE
:1001B00060E00E9436058BE060E00E9436058CE02E
:1001C00061E00E943605113019F41093990105C0C1
:1001D000809199018150809399011F910895CF9347
:1001E000DF9382E392E060E071E00E94E80382E343
:1001F00092E063E271E00E94E80382E392E06AE346
:1002000071E00E94E80382E392E062E571E00E94FF
:10021000E80382E392E068E671E030C082E392E0B6
:100220000E94A402813311F481E003C0823321F4DF
:1002300080E00E948C0024C0833381F4C0E0D0E0D1
:1002400081E00E948C0061E070E080E090E00E941C
:1002500069042196C83CD10599F712C0843351F442
:10026000C0E0D0E080E00E948C002196C83CD1051F
:10027000C9F706C082E392E060E871E00E94E803FB
:1002800082E392E00E947302892B41F6DF91CF91C5
:10029000089582E392E040E855E260E070E00E9459
:1002A000EC0189E061E00E94CA048AE061E00E94FA
:1002B000CA048BE061E00E94CA048CE061E00E9405
:1002C000CA04089508951F920F920FB60F92112439
:1002D0002F933F934F938F939F93EF93FF9380912F
:1002E000C00082FD1DC04091C6002091EA013091FE
:1002F000EB012F5F3F4F2F7330708091EC01909195
:10030000ED012817390771F0E091EA01F091EB0156
:10031000E655FE4F40833093EB012093EA0102C083
:100320008091C600FF91EF919F918F914F913F91E6
:100330002F910F900FBE0F901F901895E0913E02E5
:10034000F0913F02E05CFF4F8191919120813181DA
:10035000821B930B8F739070892B11F00E946201A6
:1003600008951F920F920FB60F9211242F933F936F
:100370008F939F93EF93FF9320912E0230912F0242
:1003800080913002909131022817390731F4809121
:10039000C1008F7D8093C10014C0E0913002F091C4
:1003A0003102E251FE4F2081809130029091310262
:1003B00001968F7390709093310280933002209356
:1003C000C600FF91EF919F918F913F912F910F90D8
:1003D0000FBE0F901F901895AF92BF92DF92EF92D1
:1003E000FF920F931F93CF93DF93EC017A018B0160
:1003F000DD24403081EE580780E0680780E0780710
:1004000011F0DD24D39491E0A92EB12CEC89FD8963
:10041000DD2069F0C50108A002C0880F991F0A9469
:10042000E2F7808360E079E08DE390E005C0108220
:1004300060E874E88EE190E0A80197010E946905E8
:10044000215030404040504056954795379527956C
:1004500080E12030380720F0DD2011F0DD24D6CFF8
:10046000E889F9893083EA89FB89208319A2EE891A
:10047000FF89408121E030E0C9010C8C02C0880F67
:10048000991F0A94E2F7482B4083EE89FF89408147
:10049000C9010D8C02C0880F991F0A94E2F7482BFE
:1004A0004083EE89FF894081C9010E8C02C0880F0C
:1004B000991F0A94E2F7482B4083EE89FF898081D7
:1004C0000F8C02C0220F331F0A94E2F720952823D5
:1004D0002083DF91CF911F910F91FF90EF90DF90DC
:1004E000BF90AF900895DC011C96ED91FC911D9793
:1004F000E05CFF4F2191319180819181281B390B64
:100500002F733070C9010895DC011C96ED91FC91A8
:100510001D97E05CFF4F20813181E054F040DF0106
:10052000AE5BBF4F8D919C9111972817390719F435
:100530002FEF3FEF07C08D919C91E80FF91F80814D
:10054000282F30E0C9010895DC011C96ED91FC9143
:100550001D97E05CFF4F20813181E054F040DF01C6
:10056000AE5BBF4F8D919C9111972817390719F4F5
:100570002FEF3FEF10C08D919C911197E80FF91F5D
:1005800020818D919C91119701968F739070119697
:100590009C938E9330E0C9010895DC0191968C9173
:1005A0009197882339F05496ED91FC91559780816D
:1005B00086FFF9CF91961C920895CF93DF93EC01BB
:1005C000EE85FF85E05CFF4F20813181E054F040F3
:1005D0002F5F3F4F2F733070DF01AE5BBF4F8D91A8
:1005E0009C91119728173907D1F3E05CFF4F808168
:1005F0009181E054F040E80FF91F6083EE85FF859C
:10060000E05CFF4F31832083EE89FF89208181E008
:1006100090E00F8C02C0880F991F0A94E2F7282BF4
:10062000208381E089A3EC89FD89808180648083B7
:1006300081E090E0DF91CF91089510923502109201
:10064000340288EE93E0A0E0B0E08093360290930D
:100650003702A0933802B09339028EE991E090936B
:100660003302809332028AEA91E090933F028093B2
:100670003E028EEE91E0909341028093400285EC21
:1006800090E0909343028093420284EC90E0909338
:1006900045028093440280EC90E09093470280935F
:1006A000460281EC90E0909349028093480282ECEC
:1006B00090E090934B0280934A0286EC90E09093F6
:1006C0004D0280934C0284E080934E0283E080933D
:1006D0004F0287E08093500285E08093510281E0D1
:1006E000809352020895CF93DF930E948F040E945B
:1006F0004901CEE9D1E00E94EF002097E1F30E948A
:100700009E01F9CFCF92DF92EF92FF920F931F934A
:10071000CF93DF937C016B018A01C0E0D0E00FC072
:10072000D6016D916D01D701ED91FC910190F081A1
:10073000E02DC7010995C80FD91F015010400115C0
:10074000110571F7CE01DF91CF911F910F91FF90AD
:10075000EF90DF90CF900895EF92FF920F931F9349
:100760008C01DC01ED91FC910190F081E02D6DE0B8
:1007700009957C01D801ED91FC910190F081E02D6B
:10078000C8016AE009959C012E0D3F1DC9011F910A
:100790000F91FF90EF900895CF93DF93EC016115D7
:1007A000710519F420E030E00FC0DB010D9000204E
:1007B000E9F71197A61BB70BE881F9810280F38155
:1007C000E02DAD0109959C01C901DF91CF910895FC
:1007D000EF92FF920F931F937C010E94CC038C0138
:1007E000C7010E94AC03080F191FC8011F910F9188
:1007F000FF90EF9008951F920F920FB60F92112461
:100800002F933F938F939F93AF93BF938091580201
:1008100090915902A0915A02B0915B0230915C0212
:100820000196A11DB11D232F2D5F2D3720F02D57CF
:100830000196A11DB11D20935C02809358029093F4
:100840005902A0935A02B0935B0280915402909196
:100850005502A0915602B09157020196A11DB11DFB
:100860008093540290935502A0935602B09357027E
:10087000BF91AF919F918F913F912F910F900FBE9C
:100880000F901F9018959FB7F894209154023091C3
:100890005502409156025091570286B5A89B06C05A
:1008A0008F3F21F02F5F3F4F4F4F5F4F9FBF542F20
:1008B000432F322F2227280F311D411D511D82E069
:1008C000220F331F441F551F8A95D1F7B901CA0162
:1008D0000895EF92FF920F931F93CF93DF937B01C5
:1008E0008C010E944304EB010EC00E9443046C1B68
:1008F0007D0B685E7340C8F30894E108F1080109B4
:100900001109C851DC4FE114F1040105110569F723
:10091000DF91CF911F910F91FF90EF900895789400
:1009200084B5826084BD84B5816084BD85B58260F4
:1009300085BD85B5816085BDEEE6F0E08081816092
:100940008083E1E8F0E01082808182608083808192
:1009500081608083E0E8F0E0808181608083E1EB6A
:10096000F0E0808184608083E0EBF0E08081816052
:100970008083EAE7F0E08081846080838081826008
:1009800080838081816080838081806880831092F1
:10099000C1000895CF93DF93482F50E0CA018656D7
:1009A0009F4FFC0134914A575F4FFA01849188238D
:1009B00069F190E0880F991FFC01E859FF4FA5915C
:1009C000B491FC01EE58FF4FC591D491662351F4C8
:1009D0002FB7F8948C91932F909589238C938881CD
:1009E00089230BC0623061F42FB7F8948C91932F58
:1009F000909589238C938881832B88832FBF06C091
:100A00009FB7F8948C91832B8C939FBFDF91CF91EC
:100A10000895833071F0843028F48130A1F0823061
:100A200021F514C08630B1F08730D1F08430E9F47C
:100A300004C0809180008F7703C0809180008F7DFB
:100A400080938000089584B58F7702C084B58F7D30
:100A500084BD08958091B0008F778093B000089591
:100A60008091B0008F7D8093B0000895FF920F9326
:100A70001F93F62E482F50E0CA0182559F4FFC016C
:100A80002491CA0186569F4FFC0114914A575F4F2B
:100A9000FA0104910023C9F0222319F0822F0E9449
:100AA0000905E02FF0E0EE0FFF1FEE58FF4FA59174
:100AB000B4919FB7F894FF2021F48C911095812375
:100AC00002C08C91812B8C939FBF1F910F91FF903F
:100AD0000895A1E21A2EAA1BBB1BFD010DC0AA1F7F
:100AE000BB1FEE1FFF1FA217B307E407F50720F097
:100AF000A21BB30BE40BF50B661F771F881F991F12
:100B00001A9469F760957095809590959B01AC015A
:100B1000BD01CF010895EE0FFF1F0590F491E02D68
:060B20000994F894FFCFD8
:100B26005072657373206120636F6D6D616E642012
:100B3600746F207475726E20746865206D6F746FA3
:100B4600723A002027312720746F20737465702055
:100B56004357203120737465700020273227207494
:100B66006F2073746570204343572031207374657A
:100B760070002027332720746F207374657020431C
:100B860057203120726576002027342720746F2085
:100B96007374657020434357203120737465700069
:100BA600496E76616C696420636F6D6D616E642059
:100BB600656E74657265642E000100000000DD023A
:0A0BC60082037302A4028402CD0230
:00000001FF
