:100000000C9434000C9451000C9451000C94510049
:100010000C9451000C9451000C9451000C9451001C
:100020000C9451000C9451000C9451000C9451000C
:100030000C9451000C9451000C9451000C945100FC
:100040000C9451000C9451000C9451000C945100EC
:100050000C9451000C9451000C9451000C945100DC
:100060000C9451000C94510011241FBECFEFD8E026
:10007000DEBFCDBF11E0A0E0B1E0ECE3FAE002C0EA
:1000800005900D92AE3AB107D9F711E0AEEAB1E0B2
:1000900001C01D92AE3AB107E1F70E9453000C94E3
:1000A0001C050C940000CF93DF9360E072EC81E0BC
:1000B00090E00E94FD000E94740000D080E091E07A
:1000C000EDB7FEB7928381830E9433020F900F90A9
:1000D000C0E9D1E00E94AC0088E893E1FE013197CD
:1000E000F1F70197D9F7F6CF259A569A579A509A71
:1000F0000895982F8091AD01813041F45D9A5E980A
:100100005F9A28989130A9F084E023C08091AD01D6
:10011000823029F45D985E9A5F9A289808C0809191
:10012000AD01833051F45D985E9A5F98289A9130C2
:1001300069F48091AD018F5F0CC05D9A5E985F9805
:10014000289A913019F49093AD0108958091AD01F2
:1001500081508093AD0108950F931F93CF93DF9348
:1001600086E091E00E9435018BE291E00E9435012A
:1001700084E491E00E9435018EE591E00E94350112
:1001800086E791E00E9435010E943F01882381F1BA
:100190000E943C01182F0E942001113311F481E0CC
:1001A00003C0123321F480E00E94790021C0133390
:1001B00079F4C0E0D0E000EA1FE081E00E9479001D
:1001C000C8010197F1F72196C83CD105B1F710C0DD
:1001D000143351F4C0E0D0E080E00E947900219611
:1001E000C83CD105C9F704C08FE891E00E943501F1
:1001F000DF91CF911F910F9108959B01AC01209A3F
:10020000219882E08093C00088E18093C10087E05C
:100210008093C2008091C00081FD05C060E472E45B
:100220008FE090E004C060E874E88EE190E00E9406
:10023000FA04215030403093C5002093C400089543
:10024000982F8091C00085FFFCCF9093C600089541
:10025000FC0107C08091C00085FFFCCF31969093D0
:10026000C60090819923B1F708950E9428018AEA77
:1002700091E00E94280108958091C6000895809120
:10028000C000807808954F925F926F927F928F9214
:100290009F92AF92BF92CF92DF92FF920F931F93E4
:1002A000DF93CF93CDB7DEB72C970FB6F894DEBFB0
:1002B0000FBECDBF5A016B01122F823039F521C01C
:1002C0008091C00085FFFCCF20E0812F90E0019756
:1002D000BA0102C0660F771F8A95E2F7CB01AA2701
:1002E00097FDA095BA2F8A219B21AC21BD210097B3
:1002F000A105B10509F021E0205D2093C600115051
:1003000002C041E050E01123D9F65BC04115510510
:100310006105710551F000E02E010894411C511C4B
:10032000682E77248824992437C090E020E307C002
:100330008091C00085FFFCCF2093C6009F5F91177E
:1003400008F03FC09A30A1F73CC0A114B104C10429
:10035000D104D9F0FA2CC601B501A40193010E9481
:10036000FA04C901DA015C016D01C201800F911D1F
:100370009C878B87C601B501A40193010E94DB0411
:10038000F61AEB85FC85F08206C01B30C0F4F20142
:10039000E00FF11D10820F5F0117B8F210C0FE01CF
:1003A000E00FF11DE081EA3010F0E95C01C0E05D92
:1003B0008091C00085FFFCCFE093C6000150002370
:1003C00071F72C960FB6F894DEBF0FBECDBFCF915C
:1003D000DF911F910F91FF90DF90CF90BF90AF9072
:1003E0009F908F907F906F905F904F900895AF9205
:1003F000BF92CF92DF92EF92FF920F931F935B0118
:100400006C010E94BE037B018C018AE0B801A70148
:100410002FEF0E9443018091C00085FFFCCF8EE248
:100420008093C600C801B7010E94EA039B01AC019A
:10043000C601B5010E94590320E034E244E759E4C3
:100440000E9478040E94BE03AB01BC018AE02FEF3A
:100450000E9443011F910F91FF90EF90DF90CF908A
:10046000BF90AF9008959F92AF92BF92CF92DF92CC
:10047000EF92FF920F931F93DF93CF93CDB7DEB729
:1004800030E1E32EF12CEC0EFD1E8E859F859C0144
:1004900069012AE0A22E9DE2B92E85E2982EF8C0CD
:1004A000953209F0ECC00894C11CD11CD6019C9176
:1004B000892F80538A3010F02FEF0FC020E009C041
:1004C0002A9D202D1124280F0894C11CD11CF6014F
:1004D0009081892F80538A3098F3983509F48AC027
:1004E0009935C4F4943409F44FC095344CF49234E3
:1004F00009F499C093342CF5953209F0C6C0B8C000
:10050000933509F4ABC0953509F461C0963409F010
:10051000BCC099C0963609F496C0973644F4933619
:1005200081F09436C9F0923609F0AFC06FC09537AC
:1005300009F444C0983709F454C0933709F0A5C0B2
:100540008DC0D7019C918091C00085FFFCCFE2E077
:10055000F0E0EE0EFF1E97C0D701ED91FC91F7FF82
:1005600009C08091C00085FFFCCFF095E195FF4F59
:10057000B092C60082E090E0E80EF91EAF01662757
:1005800057FD6095762F18C0D7014D915D916D9103
:100590007C9177FF0DC08091C00085FFFCCF7095E6
:1005A0006095509541955F4F6F4F7F4FB092C60059
:1005B000E4E0F0E0EE0EFF1E8AE042C087010E5F2D
:1005C0001F4FD7014D915C9160E070E008C087013A
:1005D0000C5F1F4FF70140815181628173818AE076
:1005E00012C087010E5F1F4FD7014D915C9160E0F3
:1005F00070E008C087010C5F1F4FF70140815181F7
:100600006281738180E10E94430130C0D7014D9126
:100610005C912F3F09F420E1E2E0F0E0EE0EFF1ED6
:1006200060E070E00CC0D7014D915D916D917C91BF
:100630002F3F09F420E2E4E0F0E0EE0EFF1E82E03E
:100640000E94430122C087010C5F1F4FD7016D91AB
:100650007D918D919C910E94F70108C087010E5FEA
:100660001F4FF701808191810E94280178010DC000
:100670008091C00085FFFCCF9092C60006C080919B
:10068000C00085FFFCCF9093C6000894C11CD11C0C
:10069000D6019C91992309F003CFCF91DF911F914F
:1006A0000F91FF90EF90DF90CF90BF90AF909F9011
:1006B00008955058BB27AA270ED0E0C0D1D030F003
:1006C000D6D020F031F49F3F11F41EF4C6C00EF4D2
:1006D000E095E7FBBCC0E92FE2D080F3BA176207D0
:1006E00073078407950718F071F49EF5FAC00EF4AD
:1006F000E0950B2EBA2FA02D0B01B90190010C0132
:10070000CA01A0011124FF27591B99F0593F50F449
:10071000503E68F11A16F040A22F232F342F4427A1
:10072000585FF3CF469537952795A795F040539599
:10073000C9F77EF41F16BA0B620B730B840BBAF069
:100740009150A1F0FF0FBB1F661F771F881FC2F7D4
:100750000EC0BA0F621F731F841F48F487957795E8
:100760006795B795F7959E3F08F0B3CF9395880F9F
:1007700008F09927EE0F97958795089598D088F0FF
:100780009F5790F0B92F9927B751A0F0D1F0660F7D
:10079000771F881F991F1AF0BA95C9F712C0B13098
:1007A00081F09FD0B1E008959CC0672F782F8827F3
:1007B000B85F39F0B93FCCF3869577956795B395D7
:1007C000D9F73EF490958095709561957F4F8F4F46
:1007D0009F4F0895E89409C097FB3EF4909580954B
:1007E000709561957F4F8F4F9F4F9923A9F0F92FF7
:1007F00096E9BB279395F695879577956795B79575
:10080000F111F8CFFAF4BB0F11F460FF1BC06F5F5A
:100810007F4F8F4F9F4F16C0882311F096E911C06C
:10082000772321F09EE8872F762F05C0662371F08D
:1008300096E8862F70E060E02AF09A95660F771FA1
:10084000881FDAF7880F9695879597F9089597F995
:100850009F6780E870E060E008959FEF80EC089566
:1008600000240A941616170618060906089500248F
:100870000A9412161306140605060895092E039409
:10088000000C11F4882352F0BB0F40F4BF2B11F47D
:1008900060FF04C06F5F7F4F8F4F9F4F089557FDDC
:1008A0009058440F551F59F05F3F71F04795880FDE
:1008B00097FB991F61F09F3F79F087950895121675
:1008C00013061406551FF2CF4695F1DF08C0161621
:1008D00017061806991FF1CF8695710561050894D2
:1008E0000895E894BB2766277727CB0197F90895E9
:1008F0000BD0C4CFB5DF28F0BADF18F0952309F08C
:10090000A6CFABCF1124EECFCADFA0F3959FD1F3D2
:10091000950F50E0551F629FF001729FBB27F00DAD
:10092000B11D639FAA27F00DB11DAA1F649F662702
:10093000B00DA11D661F829F2227B00DA11D621F51
:10094000739FB00DA11D621F839FA00D611D221F0B
:10095000749F3327A00D611D231F849F600D211DEF
:10096000822F762F6A2F11249F5750408AF0E1F092
:1009700088234AF0EE0FFF1FBB1F661F771F881FDB
:1009800091505040A9F79E3F510570F060CFAACF1B
:100990005F3FECF3983EDCF3869577956795B795C6
:1009A000F795E7959F5FC1F7FE2B880F911D9695F0
:1009B000879597F90895629FD001739FF001829FF8
:1009C000E00DF11D649FE00DF11D929FF00D839FDE
:1009D000F00D749FF00D659FF00D9927729FB00D7B
:1009E000E11DF91F639FB00DE11DF91FBD01CF018E
:1009F00011240895A1E21A2EAA1BBB1BFD010DC0F4
:100A0000AA1FBB1FEE1FFF1FA217B307E407F507BE
:100A100020F0A21BB30BE40BF50B661F771F881F9A
:100A2000991F1A9469F760957095809590959B0130
:0C0A3000AC01BD01CF010895F894FFCF88
:100A3C0048656C6C6F005072657373206120636F36
:100A4C006D6D616E6420746F207475726E207468A5
:100A5C0065206D6F746F723A0A0D002027312720C4
:100A6C00746F207374657020435720312073746544
:100A7C00700A0D002027322720746F207374657064
:100A8C0020434357203120737465700A0D002027D2
:100A9C00332720746F2073746570204357203120E6
:100AAC007265760A0D002027342720746F2073742A
:100ABC006570204343572031207265760A0D000A79
:100ACC000D496E76616C696420636F6D6D616E6447
:0E0ADC0020656E74657265642E000D0A0001BF
:00000001FF
