:100000000C9434000C9451000C9451000C94510049
:100010000C9451000C9451000C9451000C9451001C
:100020000C9451000C9451000C9451000C9451000C
:100030000C9451000C9451000C9451000C945100FC
:100040000C9451000C9451000C9451000C945100EC
:100050000C9451000C9451000C9451000C945100DC
:100060000C9451000C94510011241FBECFEFD8E026
:10007000DEBFCDBF11E0A0E0B1E0E8E0FCE002C0EF
:1000800005900D92A83FB107D9F711E0A8EFB1E0B4
:1000900001C01D92AA3FB107E1F70E9464010C94D0
:1000A00002060C94000080937C0080917C008064A8
:1000B00080937C0080917C008F7D80937C00809178
:1000C0007A00876080937A0080917A0080688093BC
:1000D0007A0080917A00806480937A0080917A001F
:1000E00086FDFCCF9091780080917900382F20E038
:1000F000290F311DC9010895CF92DF92EF92FF922F
:100100000F931F93CF93DF9380E00E9453006C0105
:1001100081E00E945300EC0182E00E9453007C01C8
:1001200083E00E9453008C0100D000D080E091E079
:10013000EDB7FEB792838183D483C3830E941903F2
:100140008BE091E0EDB7FEB792838183D482C382C6
:100150000E94190386E191E0EDB7FEB79283818397
:10016000148303830E94190381E291E0EDB7FEB787
:1001700092838183F482E3820E9419030F900F908F
:100180008CE291E0EDB7FEB7928381830E94190360
:10019000CE010F900F90CC16DD060CF4C601E816C8
:1001A000F9060CF4C701081719070CF4C801F1E0AF
:1001B00080399F070CF074C08C179D07B1F4C114EF
:1001C000D10431F4012B21F4E114F10409F44FC0FE
:1001D000C701CE14DF040CF4C6018C159D05C1F0D7
:1001E0008E159F0509F067C057C08C159D05D9F481
:1001F000209731F40115110519F4E114F104B9F156
:10020000C801C017D1070CF4CE018C179D0731F43B
:100210000E94A60100D087E891E045C08E159F0599
:1002200009F049C016C080179107B9F4CD2B31F4FD
:10023000C114D10419F4E114F104C9F0C701CE14BA
:10024000DF040CF4C6018E159F05E9F08C159D05A1
:1002500091F500D08BEA91E026C08E159F0559F5E7
:10026000CD2849F40115110531F4209721F400D06F
:100270008EE691E018C0C801C017D1070CF4CE017A
:100280008017910731F40E94CB0100D08DEB91E0F3
:100290000AC08C179D0779F400D088E991E003C06B
:1002A00000D08DEC91E0EDB7FEB7928381830E9480
:1002B00019030F900F90DF91CF911F910F91FF9035
:1002C000EF90DF90CF900895CF93DF9360E072ECD2
:1002D00081E090E00E94F9010E94850100D083EE48
:1002E00091E0EDB7FEB7928381830E9419030F90CE
:1002F0000F90C0E9D1E00E947C0080E197E2FE010E
:100300003197F1F70197D9F7F6CF529A219AE0E8A1
:10031000F0E08081826C8083E1E8F0E080818A6196
:100320008083E6E8F0E08FE39CE99183808388EBAB
:100330009BE09093F9018093F80180819181885B23
:100340009B40909389008093880008952091F80144
:100350003091F901285C30403093F9012093F80185
:1003600088E02839380764F400D089EE91E0EDB7D1
:10037000FEB7928381830E9419030F900F90089516
:100380008091860090918700821B930B9093890047
:100390008093880008952091F8013091F901285345
:1003A0003F4F3093F9012093F8018FE0213A38074D
:1003B00064F000D089EE91E0EDB7FEB792838183BF
:1003C0000E9419030F900F900895809186009091DC
:1003D0008700821B930B909389008093880088EE9E
:1003E00093E020E931E0F9013197F1F70197D9F76E
:1003F00008959B01AC01209A219882E08093C0006F
:1004000088E18093C10087E08093C2008091C000A2
:1004100081FD05C060E472E48FE090E004C060E814
:1004200074E88EE190E00E94E00521503040309366
:10043000C5002093C4000895FC0107C08091C0004E
:1004400085FFFCCF31969093C60090819923B1F738
:1004500008954F925F926F927F928F929F92AF9288
:10046000BF92CF92DF92FF920F931F93DF93CF93B0
:10047000CDB7DEB72C970FB6F894DEBF0FBECDBF59
:100480005A016B01122F823039F521C08091C000D2
:1004900085FFFCCF20E0812F90E00197BA0102C0D8
:1004A000660F771F8A95E2F7CB01AA2797FDA095E3
:1004B000BA2F8A219B21AC21BD210097A105B1054E
:1004C00009F021E0205D2093C600115002C041E0F8
:1004D00050E01123D9F65BC0411551056105710546
:1004E00051F000E02E010894411C511C682E772425
:1004F0008824992437C090E020E307C08091C00091
:1005000085FFFCCF2093C6009F5F911708F03FC086
:100510009A30A1F73CC0A114B104C104D104D9F0B0
:10052000FA2CC601B501A40193010E94E005C9019E
:10053000DA015C016D01C201800F911D9C878B87E0
:10054000C601B501A40193010E94C105F61AEB850D
:10055000FC85F08206C01B30C0F4F201E00FF11DF3
:1005600010820F5F0117B8F210C0FE01E00FF11DFD
:10057000E081EA3010F0E95C01C0E05D8091C000EC
:1005800085FFFCCFE093C6000150002371F72C9645
:100590000FB6F894DEBF0FBECDBFCF91DF911F9194
:1005A0000F91FF90DF90CF90BF90AF909F908F9072
:1005B0007F906F905F904F900895AF92BF92CF92CF
:1005C000DF92EF92FF920F931F935B016C010E94E9
:1005D000A4047B018C018AE0B801A7012FEF0E94DF
:1005E00029028091C00085FFFCCF8EE28093C60077
:1005F000C801B7010E94D0049B01AC01C601B5013E
:100600000E943F0420E034E244E759E40E945E0582
:100610000E94A404AB01BC018AE02FEF0E942902D2
:100620001F910F91FF90EF90DF90CF90BF90AF9010
:1006300008959F92AF92BF92CF92DF92EF92FF9276
:100640000F931F93DF93CF93CDB7DEB730E1E32E47
:10065000F12CEC0EFD1E8E859F859C0169012AE020
:10066000A22E9DE2B92E85E2982EF8C0953209F0AF
:10067000ECC00894C11CD11CD6019C91892F8053D9
:100680008A3010F02FEF0FC020E009C02A9D202DE6
:100690001124280F0894C11CD11CF6019081892FC8
:1006A00080538A3098F3983509F48AC09935C4F498
:1006B000943409F44FC095344CF4923409F499C041
:1006C00093342CF5953209F0C6C0B8C0933509F4BF
:1006D000ABC0953509F461C0963409F0BCC099C02F
:1006E000963609F496C0973644F4933681F09436E2
:1006F000C9F0923609F0AFC06FC0953709F444C015
:10070000983709F454C0933709F0A5C08DC0D701BC
:100710009C918091C00085FFFCCFE2E0F0E0EE0EFE
:10072000FF1E97C0D701ED91FC91F7FF09C08091A2
:10073000C00085FFFCCFF095E195FF4FB092C60059
:1007400082E090E0E80EF91EAF01662757FD609544
:10075000762F18C0D7014D915D916D917C9177FFF7
:100760000DC08091C00085FFFCCF709560955095BD
:1007700041955F4F6F4F7F4FB092C600E4E0F0E0CD
:10078000EE0EFF1E8AE042C087010E5F1F4FD701A9
:100790004D915C9160E070E008C087010C5F1F4FD5
:1007A000F70140815181628173818AE012C0870123
:1007B0000E5F1F4FD7014D915C9160E070E008C063
:1007C00087010C5F1F4FF701408151816281738166
:1007D00080E10E94290230C0D7014D915C912F3FEA
:1007E00009F420E1E2E0F0E0EE0EFF1E60E070E0D0
:1007F0000CC0D7014D915D916D917C912F3F09F413
:1008000020E2E4E0F0E0EE0EFF1E82E00E9429020A
:1008100022C087010C5F1F4FD7016D917D918D9193
:100820009C910E94DD0208C087010E5F1F4FF701F7
:10083000808191810E941C0278010DC08091C000CE
:1008400085FFFCCF9092C60006C08091C00085FF56
:10085000FCCF9093C6000894C11CD11CD6019C917A
:10086000992309F003CFCF91DF911F910F91FF9052
:10087000EF90DF90CF90BF90AF909F900895505829
:10088000BB27AA270ED0E0C0D1D030F0D6D020F0C0
:1008900031F49F3F11F41EF4C6C00EF4E095E7FB5F
:1008A000BCC0E92FE2D080F3BA1762077307840750
:1008B000950718F071F49EF5FAC00EF4E0950B2E32
:1008C000BA2FA02D0B01B90190010C01CA01A001A2
:1008D0001124FF27591B99F0593F50F4503E68F1FD
:1008E0001A16F040A22F232F342F4427585FF3CF3E
:1008F000469537952795A795F0405395C9F77EF40F
:100900001F16BA0B620B730B840BBAF09150A1F057
:10091000FF0FBB1F661F771F881FC2F70EC0BA0FDD
:10092000621F731F841F48F4879577956795B79565
:10093000F7959E3F08F0B3CF9395880F08F099275D
:10094000EE0F97958795089598D088F09F5790F06F
:10095000B92F9927B751A0F0D1F0660F771F881FE4
:10096000991F1AF0BA95C9F712C0B13081F09FD023
:10097000B1E008959CC0672F782F8827B85F39F0C1
:10098000B93FCCF3869577956795B395D9F73EF443
:1009900090958095709561957F4F8F4F9F4F0895EB
:1009A000E89409C097FB3EF4909580957095619509
:1009B0007F4F8F4F9F4F9923A9F0F92F96E9BB27BF
:1009C0009395F695879577956795B795F111F8CF3B
:1009D000FAF4BB0F11F460FF1BC06F5F7F4F8F4FA6
:1009E0009F4F16C0882311F096E911C0772321F09C
:1009F0009EE8872F762F05C0662371F096E8862F34
:100A000070E060E02AF09A95660F771F881FDAF78A
:100A1000880F9695879597F9089597F99F6780E8CD
:100A200070E060E008959FEF80EC089500240A9440
:100A30001616170618060906089500240A941216B9
:100A40001306140605060895092E0394000C11F4EC
:100A5000882352F0BB0F40F4BF2B11F460FF04C099
:100A60006F5F7F4F8F4F9F4F089557FD9058440FF2
:100A7000551F59F05F3F71F04795880F97FB991FFD
:100A800061F09F3F79F087950895121613061406BA
:100A9000551FF2CF4695F1DF08C016161706180647
:100AA000991FF1CF86957105610508940895E89422
:100AB000BB2766277727CB0197F908950BD0C4CFC2
:100AC000B5DF28F0BADF18F0952309F0A6CFABCF39
:100AD0001124EECFCADFA0F3959FD1F3950F50E01C
:100AE000551F629FF001729FBB27F00DB11D639FE0
:100AF000AA27F00DB11DAA1F649F6627B00DA11D86
:100B0000661F829F2227B00DA11D621F739FB00D2B
:100B1000A11D621F839FA00D611D221F749F33279B
:100B2000A00D611D231F849F600D211D822F762F34
:100B30006A2F11249F5750408AF0E1F088234AF031
:100B4000EE0FFF1FBB1F661F771F881F915050407D
:100B5000A9F79E3F510570F060CFAACF5F3FECF33D
:100B6000983EDCF3869577956795B795F795E79569
:100B70009F5FC1F7FE2B880F911D9695879597F97A
:100B80000895629FD001739FF001829FE00DF11DD7
:100B9000649FE00DF11D929FF00D839FF00D749FF7
:100BA000F00D659FF00D9927729FB00DE11DF91FA3
:100BB000639FB00DE11DF91FBD01CF011124089500
:100BC000A1E21A2EAA1BBB1BFD010DC0AA1FBB1F51
:100BD000EE1FFF1FA217B307E407F50720F0A21BC3
:100BE000B30BE40BF50B661F771F881F991F1A9430
:100BF00069F760957095809590959B01AC01BD015A
:080C0000CF010895F894FFCF25
:100C08000A0D414443303A202564000A0D4144430B
:100C1800313A202564000A0D414443323A202564C4
:100C2800000A0D414443333A202564000A0D2A2A5C
:100C38002A2A2A2A2A2A2A2A2A2A2A2A2A2A2A2A0C
:100C48002A2A2A2A2A2A2A2A2A2A2A2A2A2A2A2AFC
:100C58002A2A2A2A2A2A2A2A2A2A2A2A2A2A2A2AEC
:100C68002A2A2A2A2A2A2A2A2A2A2A0A0D000A0D80
:100C78004C4947485420484153204245454E204658
:100C88004F554E440A0D000A0D20736572766F2089
:100C980072696768740A0D000A0D207374657070B4
:100CA80065722072696768740A0D000A0D207374F2
:100CB8006570706572206C6566740A0D000A0D20F7
:100CC800736572766F206C6566740A0D000A0D20D4
:100CD8004E4F5448494E4720444554454354454493
:100CE8000A0D0048656C6C6F000A0D20446F206E79
:080CF8006F7468696E6700006B
:00000001FF
