:100000000C9434000C9451000C9451000C94510049
:100010000C9451000C9451000C9451000C9451001C
:100020000C9451000C9451000C9451000C9451000C
:100030000C9451000C9451000C9451000C945100FC
:100040000C9451000C9451000C9451000C945100EC
:100050000C9451000C9451000C9451000C945100DC
:100060000C9451000C94510011241FBECFEFD8E026
:10007000DEBFCDBF11E0A0E0B1E0E8E9FDE002C0E5
:1000800005900D92AA32B107D9F711E0AAE2B1E0CA
:1000900001C01D92AB32B107E1F70E9453020C94EC
:1000A000CA060C940000FB019F01E8944230C4F0A2
:1000B0004532B4F44A3029F497FB1EF490958195AB
:1000C0009F4F642F77270E94B606805D8A330CF01D
:1000D000895D8193CB010097A1F716F45DE25193FE
:1000E0001082C9010C947400DC01FC01672F71912E
:1000F0007723E1F7329704C07C916D93708362910E
:10010000AE17BF07C8F30895CF92DF92FF920F9307
:100110001F93DF93CF93CDB7DEB760970FB6F894F8
:10012000DEBF0FBECDBF80E50E9404028AE10E94BF
:10013000370281E50E942C020E944902082F0E948A
:100140002F0280E50E9404028BE10E94370281E5C4
:100150000E942C020E944902F82E0E942F027F2D3D
:1001600060E010E0602B712B882777FD8095982F39
:100170000E94860520E030E040E85DE30E94120620
:100180000E945305DC01CB016E010894C11CD11CF7
:10019000B6014AE050E00E94530000D000D080E059
:1001A00091E0EDB7FEB792838183D482C3820E942F
:1001B000C8030F900F900F900F9080E50E940402EB
:1001C0008CE10E94370281E50E942C020E944902C4
:1001D000082F0E942F0280E50E9404028DE10E94F8
:1001E000370281E50E942C020E944902F82E0E94EB
:1001F0002F027F2D60E010E0602B712B882777FDA8
:100200008095982F0E94860520E030E040E85DE36D
:100210000E9412060E945305DC01CB01B6014AE0A0
:1002200050E00E94530000D000D086E091E0EDB78E
:10023000FEB792838183D482C3820E94C8030F9049
:100240000F900F900F9080E50E9404028EE10E94B3
:10025000370281E50E942C020E944902082F0E9469
:100260002F0280E50E9404028FE10E94370281E59F
:100270000E942C020E944902F82E0E942F027F2D1C
:1002800060E010E0602B712B882777FD8095982F18
:100290000E94860520E030E040E85DE30E941206FF
:1002A0000E945305DC01CB01B6014AE050E00E94F8
:1002B000530000D000D08DE091E0EDB7FEB79283FF
:1002C0008183D482C3820E94C8030F900F900F9045
:1002D0000F9060960FB6F894DEBF0FBECDBFCF91E2
:1002E000DF911F910F91FF90DF90CF900895CF92F3
:1002F000DF92EF92FF921F93DF93CF93CDB7DEB7DC
:1003000060970FB6F894DEBF0FBECDBF80E50E94A8
:10031000040285E30E94370281E50E942C020E94BC
:100320004902182F0E942F026E010894C11CD11C93
:1003300085E1E82E81E0F82E28C080E50E940402C5
:1003400085E30E94370281E50E942C020E94490247
:10035000182F0E942F02812F90E0B6014AE050E052
:100360000E94530000D000D0EDB7FEB73196ADB774
:10037000BEB71296FC92EE921197128313820E94DE
:10038000C8030F900F900F900F901F3FB1F660962B
:100390000FB6F894DEBF0FBECDBFCF91DF911F9196
:1003A000FF90EF90DF90CF9008951092B90086E40F
:1003B0008093B80084E08093BC000895982F84EA6D
:1003C0008093BC008091BC0087FFFCCF8091B90076
:1003D000887F883021F0803111F081E0089590937A
:1003E000BB0084E88093BC008091BC0087FFFCCFF9
:1003F0009091B900987F983111F480E0089580E0E1
:10040000903409F081E00895982F44EA34E824E913
:100410004093BC008091BC0087FFFCCF8091B90065
:10042000887F883011F0803199F79093BB0030932A
:10043000BC008091BC0087FFFCCF8091B900887F11
:10044000803211F0883539F42093BC008091BC00D3
:1004500084FDFCCFDDCF08950E94DE01089584E97C
:100460008093BC008091BC0084FDFCCF08958093F4
:10047000BB0084E88093BC008091BC0087FFFCCF68
:100480008091B90090E0887F883209F091E0892F4F
:10049000089584E88093BC008091BC0087FFFCCF66
:1004A0008091BB000895CF93DF9360E072EC81E010
:1004B00090E00E94C00200D084E291E0EDB7FEB768
:1004C000928381830E94C8032CE43DE10F900F903A
:1004D00040E951E0CA010197F1F721503040D1F7CE
:1004E0003D9A3C9A10922A010E94D50180E50E9413
:1004F00004028DE30E9437028CE00E9437020E94C2
:100500002F0280E49CE90197F1F70E947701C0E98E
:10051000D1E00E94840088E893E1FE013197F1F771
:100520000197D9F7F6CF9B01AC01DC01CB018056D6
:100530009940A040B040815A984BA140B04018F07B
:1005400027E630E018C060E874E88EE190E0621BB6
:10055000730B840B950BF3E0660F771F881F991FB1
:10056000FA95D1F7E4E0220F331F441F551FEA9597
:10057000D1F70E9494062093C4003093C5000895DB
:1005800028E12093C10026E02093C2001092C00011
:100590000E9493020895FC0107C08091C00085FF6E
:1005A000FCCF31969093C60090819923B1F70895BE
:1005B0004F925F926F927F928F929F92AF92BF9273
:1005C000CF92DF92FF920F931F93DF93CF93CDB71C
:1005D000DEB72C970FB6F894DEBF0FBECDBF5A0121
:1005E0006B01122F823039F521C08091C00085FF48
:1005F000FCCF20E0812F90E00197BA0102C0660F86
:10060000771F8A95E2F7CB01AA2797FDA095BA2F0D
:100610008A219B21AC21BD210097A105B10509F0DC
:1006200021E0205D2093C600115002C041E050E05F
:100630001123D9F65BC0411551056105710551F0D3
:1006400000E02E010894411C511C682E7724882458
:10065000992437C090E020E307C08091C00085FF57
:10066000FCCF2093C6009F5F911708F03FC09A30DF
:10067000A1F73CC0A114B104C104D104D9F0FA2CF3
:10068000C601B501A40193010E949406C901DA01D3
:100690005C016D01C201800F911D9C878B87C60193
:1006A000B501A40193010E947506F61AEB85FC853D
:1006B000F08206C01B30C0F4F201E00FF11D108281
:1006C0000F5F0117B8F210C0FE01E00FF11DE081CD
:1006D000EA3010F0E95C01C0E05D8091C00085FF68
:1006E000FCCFE093C6000150002371F72C960FB6A3
:1006F000F894DEBF0FBECDBFCF91DF911F910F9158
:10070000FF90DF90CF90BF90AF909F908F907F90A1
:100710006F905F904F900895AF92BF92CF92DF920B
:10072000EF92FF920F931F935B016C010E9458059B
:100730007B018C018AE0B801A7012FEF0E94D8024B
:100740008091C00085FFFCCF8EE28093C600C80177
:10075000B7010E9484059B01AC01C601B5010E944E
:10076000EE0420E034E244E759E40E9412060E94BD
:100770005805AB01BC018AE02FEF0E94D8021F91FF
:100780000F91FF90EF90DF90CF90BF90AF900895C2
:100790009F92AF92BF92CF92DF92EF92FF920F9310
:1007A0001F93DF93CF93CDB7DEB700E1E02EF12C9E
:1007B000EC0EFD1E8E859F859C0169011AE0A12E1D
:1007C000BDE2BB2EA5E29A2EF8C0953209F0ECC02E
:1007D0000894C11CD11CD6019C91892F80538A306A
:1007E00010F02FEF0FC020E009C02A9D202D11240A
:1007F000280F0894C11CD11CF6019081892F8053C9
:100800008A3098F3983509F48AC09935C4F4943441
:1008100009F44FC095344CF4923409F499C09334E0
:100820002CF5953209F0C6C0B8C0933509F4ABC0B9
:10083000953509F461C0963409F0BCC099C096366C
:1008400009F496C0973644F4933681F09436C9F093
:10085000923609F0AFC06FC0953709F444C098379D
:1008600009F454C0933709F0A5C08DC0D7019C91FD
:100870008091C00085FFFCCFE2E0F0E0EE0EFF1EAD
:1008800097C0D701ED91FC91F7FF09C08091C0009E
:1008900085FFFCCFF095E195FF4FB092C60082E056
:1008A00090E0E80EF91EAF01662757FD6095762FA0
:1008B00018C0D7014D915D916D917C9177FF0DC06E
:1008C0008091C00085FFFCCF709560955095419553
:1008D0005F4F6F4F7F4FB092C600E4E0F0E0EE0E46
:1008E000FF1E8AE042C087010E5F1F4FD7014D9166
:1008F0005C9160E070E008C087010C5F1F4FF7015A
:1009000040815181628173818AE012C087010E5F4C
:100910001F4FD7014D915C9160E070E008C08701E6
:100920000C5F1F4FF701408151816281738180E12B
:100930000E94D80230C0D7014D915C912F3F09F43D
:1009400020E1E2E0F0E0EE0EFF1E60E070E00CC09F
:10095000D7014D915D916D917C912F3F09F420E27B
:10096000E4E0F0E0EE0EFF1E82E00E94D80222C01A
:1009700087010C5F1F4FD7016D917D918D919C91E7
:100980000E948C0308C087010E5F1F4FF701808112
:1009900091810E94CB0278010DC08091C00085FF3B
:1009A000FCCF9092C60006C08091C00085FFFCCFAE
:1009B0009093C6000894C11CD11CD6019C91992328
:1009C00009F003CFCF91DF911F910F91FF90EF902E
:1009D000DF90CF90BF90AF909F9008955058BB2765
:1009E000AA270ED0E5C0D6D030F0DBD020F031F40D
:1009F0009F3F11F41EF4CBC00EF4E095E7FBC1C09D
:100A0000E92FE7D080F3BA176207730784079507C9
:100A100018F071F49EF5FFC00EF4E0950B2EBA2F7E
:100A2000A02D0B01B90190010C01CA01A0011124F4
:100A3000FF27591B99F0593F50F4503E68F11A16A0
:100A4000F040A22F232F342F4427585FF3CF469531
:100A500037952795A795F0405395C9F77EF41F1653
:100A6000BA0B620B730B840BBAF09150A1F0FF0F1D
:100A7000BB1F661F771F881FC2F70EC0BA0F621F09
:100A8000731F841F48F4879577956795B795F795F9
:100A90009E3F08F0B3CF9395880F08F09927EE0F8B
:100AA00097958795089504D06894B111B5C00895BD
:100AB00098D088F09F5790F0B92F9927B751A0F0A0
:100AC000D1F0660F771F881F991F1AF0BA95C9F7E2
:100AD00012C0B13081F09FD0B1E008959CC0672F63
:100AE000782F8827B85F39F0B93FCCF38695779592
:100AF0006795B395D9F73EF490958095709561957B
:100B00007F4F8F4F9F4F0895E89409C097FB3EF4A5
:100B100090958095709561957F4F8F4F9F4F99234A
:100B2000A9F0F92F96E9BB279395F69587957795C8
:100B30006795B795F111F8CFFAF4BB0F11F460FF88
:100B40001BC06F5F7F4F8F4F9F4F16C0882311F0E0
:100B500096E911C0772321F09EE8872F762F05C0F4
:100B6000662371F096E8862F70E060E02AF09A958F
:100B7000660F771F881FDAF7880F9695879597F984
:100B8000089597F99F6780E870E060E008959FEF0F
:100B900080EC089500240A94161617061806090614
:100BA000089500240A9412161306140605060895E3
:100BB000092E0394000C11F4882352F0BB0F40F46B
:100BC000BF2B11F460FF04C06F5F7F4F8F4F9F4FAB
:100BD000089557FD9058440F551F59F05F3F71F02D
:100BE0004795880F97FB991F61F09F3F79F0879594
:100BF0000895121613061406551FF2CF4695F1DF1D
:100C000008C0161617061806991FF1CF86957105AC
:100C1000610508940895E894BB2766277727CB01E0
:100C200097F908950BD0C4CFB5DF28F0BADF18F0DC
:100C3000952309F0A6CFABCF1124EECFCADFA0F3E6
:100C4000959FD1F3950F50E0551F629FF001729F61
:100C5000BB27F00DB11D639FAA27F00DB11DAA1F80
:100C6000649F6627B00DA11D661F829F2227B00DCD
:100C7000A11D621F739FB00DA11D621F839FA00D58
:100C8000611D221F749F3327A00D611D231F849FA8
:100C9000600D211D822F762F6A2F11249F575040FF
:100CA0008AF0E1F088234AF0EE0FFF1FBB1F661F9A
:100CB000771F881F91505040A9F79E3F510570F053
:100CC00060CFAACF5F3FECF3983EDCF38695779533
:100CD0006795B795F795E7959F5FC1F7FE2B880F4E
:100CE000911D9695879597F90895629FD001739FFE
:100CF000F001829FE00DF11D649FE00DF11D929FB8
:100D0000F00D839FF00D749FF00D659FF00D9927F6
:100D1000729FB00DE11DF91F639FB00DE11DF91F1A
:100D2000BD01CF0111240895A1E21A2EAA1BBB1BFD
:100D3000FD010DC0AA1FBB1FEE1FFF1FA217B307A7
:100D4000E407F50720F0A21BB30BE40BF50B661FBD
:100D5000771F881F991F1A9469F760957095809581
:100D600090959B01AC01BD01CF010895AA1BBB1B4F
:100D700051E107C0AA1FBB1FA617B70710F0A61B9B
:100D8000B70B881F991F5A95A9F780959095BC01BC
:080D9000CD010895F894FFCF96
:100D9800593A2025730020523A202573000A0D5035
:100DA8003A20257300200A0D523A202578000A0DB2
:0A0DB80025783A0048656C6C6F0066
:00000001FF
