:100000000C9434000C9451000C9451000C94510049
:100010000C9451000C9451000C9451000C9451001C
:100020000C9451000C9451000C9451000C9451000C
:100030000C9451000C9451000C9451000C945100FC
:100040000C9451000C9451000C9451000C945100EC
:100050000C9451000C9451000C9451000C945100DC
:100060000C9451000C94510011241FBECFEFD8E026
:10007000DEBFCDBF11E0A0E0B1E0E0E7F3E102C0F8
:1000800005900D92AE32B107D9F711E0AEE2B1E0C2
:1000900001C01D92A533B107E1F70E94EB040C9457
:1000A000B6090C940000FB019F01E8944230C4F0B3
:1000B0004532B4F44A3029F497FB1EF490958195AB
:1000C0009F4F642F77270E94A209805D8A330CF02E
:1000D000895D8193CB010097A1F716F45DE25193FE
:1000E0001082C9010C947400DC01FC01672F71912E
:1000F0007723E1F7329704C07C916D93708362910E
:10010000AE17BF07C8F3089580937C0080917C00F0
:10011000806480937C0080917C008F7D80937C0044
:1001200080917A00876080937A0080917A0080685D
:1001300080937A0080917A00806480937A00809125
:100140007A0086FDFCCF9091780080917900382F5D
:1001500020E0290F311DC90108958F929F92AF921F
:10016000BF92CF92DF92EF92FF920F931F93CF93A4
:10017000DF9380E00E9484004C0181E00E948400B3
:10018000EC0182E00E9484006C0183E00E94840004
:100190007C015E018C169D060CF45401CA14DB042C
:1001A0000CF45601EA14FB040CF4570180E2A81683
:1001B00083E0B8060CF0B3C1AC16BD0609F05CC014
:1001C0008114910439F4E114F10421F4C114D1042F
:1001D00009F4A5C1E6018C149D040CF4E401C815D2
:1001E000D905D9F400D080E091E0EDB7FEB7928355
:1001F00081830E94B40600D006E011E0EDB7FEB79F
:1002000012830183B482A3820E94B406EDB7FEB7C5
:1002100012830183D483C3835EC0CC15DD0509F04E
:100220007EC100D080E091E0EDB7FEB7928381837C
:100230000E94B40600D006E011E0EDB7FEB71283CD
:100240000183B482A3820E94B406EDB7FEB7128385
:100250000183948283820E94B406EDB7FEB71283B5
:100260000183F482E3820E94B406EDB7FEB71283E5
:100270000183D483C3834BC1A814B90409F05BC0C4
:10028000209739F4E114F10421F4C114D10409F4E4
:1002900046C15701CE15DF050CF45E01AC16BD0654
:1002A00099F500D080E091E0EDB7FEB792838183AD
:1002B0000E94B40600D006E011E0EDB7FEB712834D
:1002C0000183B482A3820E94B406EDB7FEB7128305
:1002D0000183948283820E94B406EDB7FEB7128335
:1002E0000183F482E3820E94B406EDB7FEB7128365
:1002F0000183D482C3820E94B4060F900F900F90A6
:100300000F900E944F050BC1AE14BF0409F007C146
:1003100000D080E091E0EDB7FEB7928381830E9428
:10032000B40600D006E011E0EDB7FEB712830183FA
:10033000D483C38356C0AE14BF0409F073C02097A2
:1003400039F48114910421F4C114D10409F4E7C0F3
:1003500076018C149D040CF47401EC14FD0459F521
:1003600000D080E091E0EDB7FEB7928381830E94D8
:10037000B40600D006E011E0EDB7FEB712830183AA
:10038000D483C3830E94B406EDB7FEB71283018302
:10039000948283820E94B406EDB7FEB71283018374
:1003A000B482A3820E94B406EDB7FEB71283018324
:1003B000F482E382A0CFEC16FD0609F0B0C000D0B5
:1003C00080E091E0EDB7FEB7928381830E94B4068E
:1003D00000D006E011E0EDB7FEB712830183F4828E
:1003E000E3820E94B406EDB7FEB7128301839482C4
:1003F00083820E94B406EDB7FEB712830183B482F4
:10040000A3820E94B406EDB7FEB712830183D482A3
:10041000C3820E94B4060F900F900F900F900E941D
:100420009C027DC0AC14BD0409F079C08114910414
:1004300031F4E114F10419F4209709F470C0670154
:10044000CE15DF050CF46E01CE14DF0499F500D053
:1004500080E091E0EDB7FEB7928381830E94B406FD
:1004600000D006E011E0EDB7FEB712830183D4831C
:10047000C3830E94B406EDB7FEB712830183948252
:1004800083820E94B406EDB7FEB712830183D48243
:10049000C3820E94B406EDB7FEB712830183B48213
:1004A000A3820E94B4060F900F900F900F900E94AD
:1004B0006D0535C0CC16DD0691F500D080E091E0E9
:1004C000EDB7FEB7928381830E94B40600D006E0A8
:1004D00011E0EDB7FEB712830183D482C3820E947C
:1004E000B406EDB7FEB712830183948283820E9423
:1004F000B406EDB7FEB712830183F482E3820E9453
:10050000B406EDB7FEB712830183B482A3820E94C2
:10051000B4060F900F900F900F900E94D402DF91BD
:10052000CF911F910F91FF90EF90DF90CF90BF90F0
:10053000AF909F908F90089580912E0190912F0100
:1005400002978CF50E94120380918600909187009B
:1005500086589B4090938B0080938A008AE79FE3A4
:1005600020E931E0F9013197F1F70197D9F780914E
:100570008600909187008D569B4090938B008093CE
:100580008A0080913001909131010197909331015F
:100590008093300180912E0190912F0101969093CC
:1005A0002F0180932E0108958FE39CE9909387009B
:1005B00080938600809130019091310102978CF5F3
:1005C0000E941203809186009091870084559B4081
:1005D00090938B0080938A008AE79FE320E931E0C3
:1005E000F9013197F1F70197D9F780918600909141
:1005F00087008D569B4090938B0080938A0080915A
:100600002E0190912F01019790932F0180932E013D
:100610008091300190913101019690933101809346
:1006200030010895AF92BF92CF92DF92FF920F9365
:100630001F93DF93CF93CDB7DEB760970FB6F894D3
:10064000DEBF0FBECDBF80E50E949C048AE10E9400
:10065000CF0481E50E94C4040E94E104082F0E9497
:10066000C70480E50E949C048BE10E94CF0481E5D1
:100670000E94C4040E94E104F82E0E94C7047F2D4A
:1006800060E010E0602B712B882777FD8095982F14
:100690000E94720820E030E040E85DE30E94FE081E
:1006A0000E943F08DC01CB016E010894C11CD11CE3
:1006B000B6014AE050E00E94530000D08AE091E089
:1006C000EDB7FEB7928381830E94B40600D081E12A
:1006D000A82E81E0B82EEDB7FEB7B282A182D482F7
:1006E000C3820E94B4060F900F900F900F9080E588
:1006F0000E949C048CE10E94CF0481E50E94C40406
:100700000E94E104082F0E94C70480E50E949C0417
:100710008DE10E94CF0481E50E94C4040E94E1049F
:10072000F82E0E94C7047F2D60E010E0602B712B33
:10073000882777FD8095982F0E94720820E030E08E
:1007400040E85DE30E94FE080E943F08DC01CB0107
:10075000B6014AE050E00E94530000D000D0EDB74F
:10076000FEB7B282A182D482C3820E94B4060F90E7
:100770000F900F900F9080E50E949C048EE10E94E4
:10078000CF0481E50E94C4040E94E104082F0E9466
:10079000C70480E50E949C048FE10E94CF0481E59C
:1007A0000E94C4040E94E104F82E0E94C7047F2D19
:1007B00060E010E0602B712B882777FD8095982FE3
:1007C0000E94720820E030E040E85DE30E94FE08ED
:1007D0000E943F08DC01CB01B6014AE050E00E94D4
:1007E000530000D000D0EDB7FEB7B282A182D48210
:1007F000C3820E94B4060F900F900F900F906096E6
:100800000FB6F894DEBF0FBECDBFCF91DF911F9121
:100810000F91FF90DF90CF90BF90AF900895CF924F
:10082000DF92EF92FF921F93DF93CF93CDB7DEB7A6
:1008300060970FB6F894DEBF0FBECDBF80E50E9473
:100840009C0485E30E94CF0481E50E94C4040E94B9
:10085000E104182F0E94C7046E010894C11CD11C2A
:1008600095E1E92E91E0F92E28C080E50E949C04D4
:1008700085E30E94CF0481E50E94C4040E94E10444
:10088000182F0E94C704812F90E0B6014AE050E083
:100890000E94530000D000D0EDB7FEB73196ADB73F
:1008A000BEB71296FC92EE921197128313820E94A9
:1008B000B4060F900F900F900F901F3FB1F6609607
:1008C0000FB6F894DEBF0FBECDBFCF91DF911F9161
:1008D000FF90EF90DF90CF9008951092B90086E4DA
:1008E0008093B80084E08093BC000895982F84EA38
:1008F0008093BC008091BC0087FFFCCF8091B90041
:10090000887F883021F0803111F081E00895909344
:10091000BB0084E88093BC008091BC0087FFFCCFC3
:100920009091B900987F983111F480E0089580E0AB
:10093000903409F081E00895982F44EA34E824E9DE
:100940004093BC008091BC0087FFFCCF8091B90030
:10095000887F883011F0803199F79093BB003093F5
:10096000BC008091BC0087FFFCCF8091B900887FDC
:10097000803211F0883539F42093BC008091BC009E
:1009800084FDFCCFDDCF08950E947604089584E9AC
:100990008093BC008091BC0084FDFCCF08958093BF
:1009A000BB0084E88093BC008091BC0087FFFCCF33
:1009B0008091B90090E0887F883209F091E0892F1A
:1009C000089584E88093BC008091BC0087FFFCCF31
:1009D0008091BB000895CF93DF9360E072EC81E0DB
:1009E00090E00E9494050E942D0500D088E291E0DD
:1009F000EDB7FEB7928381830E94B4062CE43DE1FB
:100A00000F900F9040E951E0CA010197F1F7215092
:100A10003040D1F73D9A3C9A109232010E946D0409
:100A200080E50E949C048DE30E94CF048CE00E942C
:100A3000CF040E94C70480E49CE90197F1F70E946B
:100A40000F04C0E9D1E00E94AD0080E197E2FE0111
:100A50003197F1F70197D9F7F6CF529A219A229A56
:100A6000E0E8F0E08081826F8083E1E8F0E080815F
:100A70008A618083E6E8F0E08FE39CE991838083DC
:100A800088EB9BE0909334018093330180819181C6
:100A9000885B9B40909389008093880008958091A3
:100AA000330190913401885C90409093340180939D
:100AB00033018859984084F00E9412038091860087
:100AC000909187002091330130913401821B930B68
:100AD00090938900809388000895809133019091CC
:100AE000340188539F4F9093340180933301815A8E
:100AF0009F40CCF40E941203809186009091870061
:100B00002091330130913401821B930B9093890023
:100B10008093880088EE93E020E931E0F901319775
:100B2000F1F70197D9F708959B01AC01209A21981C
:100B300082E08093C00088E18093C10087E08093C9
:100B4000C2008091C00081FD05C060E472E48FE0C6
:100B500090E004C060E874E88EE190E00E948009B3
:100B6000215030403093C5002093C4000895FC010B
:100B700007C08091C00085FFFCCF31969093C600DE
:100B800090819923B1F708954F925F926F927F926F
:100B90008F929F92AF92BF92CF92DF92FF920F936C
:100BA0001F93DF93CF93CDB7DEB72C970FB6F89492
:100BB000DEBF0FBECDBF5A016B01122F823039F557
:100BC00021C08091C00085FFFCCF20E0812F90E004
:100BD0000197BA0102C0660F771F8A95E2F7CB0131
:100BE000AA2797FDA095BA2F8A219B21AC21BD2170
:100BF0000097A105B10509F021E0205D2093C60012
:100C0000115002C041E050E01123D9F65BC04115FC
:100C100051056105710551F000E02E010894411C59
:100C2000511C682E77248824992437C090E020E353
:100C300007C08091C00085FFFCCF2093C6009F5F56
:100C4000911708F03FC09A30A1F73CC0A114B1043D
:100C5000C104D104D9F0FA2CC601B501A401930155
:100C60000E948009C901DA015C016D01C201800F97
:100C7000911D9C878B87C601B501A40193010E9439
:100C80006109F61AEB85FC85F08206C01B30C0F4C2
:100C9000F201E00FF11D10820F5F0117B8F210C0D2
:100CA000FE01E00FF11DE081EA3010F0E95C01C0C7
:100CB000E05D8091C00085FFFCCFE093C60001504D
:100CC000002371F72C960FB6F894DEBF0FBECDBF90
:100CD000CF91DF911F910F91FF90DF90CF90BF9048
:100CE000AF909F908F907F906F905F904F900895FE
:100CF000AF92BF92CF92DF92EF92FF920F931F932A
:100D00005B016C010E9444087B018C018AE0B80100
:100D1000A7012FEF0E94C4058091C00085FFFCCF82
:100D20008EE28093C600C801B7010E9470089B0143
:100D3000AC01C601B5010E94DA0720E034E244E7C5
:100D400059E40E94FE080E944408AB01BC018AE0FD
:100D50002FEF0E94C4051F910F91FF90EF90DF903D
:100D6000CF90BF90AF9008959F92AF92BF92CF92D5
:100D7000DF92EF92FF920F931F93DF93CF93CDB744
:100D8000DEB730E1E32EF12CEC0EFD1E8E859F8543
:100D90009C0169012AE0A22E9DE2B92E85E2982EDF
:100DA000F8C0953209F0ECC00894C11CD11CD601E2
:100DB0009C91892F80538A3010F02FEF0FC020E0D4
:100DC00009C02A9D202D1124280F0894C11CD11C74
:100DD000F6019081892F80538A3098F3983509F471
:100DE0008AC09935C4F4943409F44FC095344CF456
:100DF000923409F499C093342CF5953209F0C6C0A9
:100E0000B8C0933509F4ABC0953509F461C0963488
:100E100009F0BCC099C0963609F496C0973644F4E0
:100E2000933681F09436C9F0923609F0AFC06FC0A6
:100E3000953709F444C0983709F454C0933709F042
:100E4000A5C08DC0D7019C918091C00085FFFCCFCB
:100E5000E2E0F0E0EE0EFF1E97C0D701ED91FC91AD
:100E6000F7FF09C08091C00085FFFCCFF095E195A8
:100E7000FF4FB092C60082E090E0E80EF91EAF018D
:100E8000662757FD6095762F18C0D7014D915D916B
:100E90006D917C9177FF0DC08091C00085FFFCCFE4
:100EA00070956095509541955F4F6F4F7F4FB09211
:100EB000C600E4E0F0E0EE0EFF1E8AE042C08701CB
:100EC0000E5F1F4FD7014D915C9160E070E008C04C
:100ED00087010C5F1F4FF70140815181628173814F
:100EE0008AE012C087010E5F1F4FD7014D915C91C0
:100EF00060E070E008C087010C5F1F4FF701408180
:100F000051816281738180E10E94C40530C0D701A4
:100F10004D915C912F3F09F420E1E2E0F0E0EE0E0C
:100F2000FF1E60E070E00CC0D7014D915D916D91A6
:100F30007C912F3F09F420E2E4E0F0E0EE0EFF1E8A
:100F400082E00E94C40522C087010C5F1F4FD701B9
:100F50006D917D918D919C910E94780608C08701CA
:100F60000E5F1F4FF701808191810E94B7057801C4
:100F70000DC08091C00085FFFCCF9092C60006C0D6
:100F80008091C00085FFFCCF9093C6000894C11CDF
:100F9000D11CD6019C91992309F003CFCF91DF9109
:100FA0001F910F91FF90EF90DF90CF90BF90AF9087
:100FB0009F9008955058BB27AA270ED0E5C0D6D0E1
:100FC00030F0DBD020F031F49F3F11F41EF4CBC0A1
:100FD0000EF4E095E7FBC1C0E92FE7D080F3BA1724
:100FE000620773078407950718F071F49EF5FFC038
:100FF0000EF4E0950B2EBA2FA02D0B01B901900134
:101000000C01CA01A0011124FF27591B99F0593F77
:1010100050F4503E68F11A16F040A22F232F342FBF
:101020004427585FF3CF469537952795A795F0400D
:101030005395C9F77EF41F16BA0B620B730B840B22
:10104000BAF09150A1F0FF0FBB1F661F771F881FDA
:10105000C2F70EC0BA0F621F731F841F48F4879532
:1010600077956795B795F7959E3F08F0B3CF939521
:10107000880F08F09927EE0F97958795089504D06B
:101080006894B111B5C0089598D088F09F5790F03A
:10109000B92F9927B751A0F0D1F0660F771F881F9D
:1010A000991F1AF0BA95C9F712C0B13081F09FD0DC
:1010B000B1E008959CC0672F782F8827B85F39F07A
:1010C000B93FCCF3869577956795B395D9F73EF4FC
:1010D00090958095709561957F4F8F4F9F4F0895A4
:1010E000E89409C097FB3EF49095809570956195C2
:1010F0007F4F8F4F9F4F9923A9F0F92F96E9BB2778
:101100009395F695879577956795B795F111F8CFF3
:10111000FAF4BB0F11F460FF1BC06F5F7F4F8F4F5E
:101120009F4F16C0882311F096E911C0772321F054
:101130009EE8872F762F05C0662371F096E8862FEC
:1011400070E060E02AF09A95660F771F881FDAF743
:10115000880F9695879597F9089597F99F6780E886
:1011600070E060E008959FEF80EC089500240A94F9
:101170001616170618060906089500240A94121672
:101180001306140605060895092E0394000C11F4A5
:10119000882352F0BB0F40F4BF2B11F460FF04C052
:1011A0006F5F7F4F8F4F9F4F089557FD9058440FAB
:1011B000551F59F05F3F71F04795880F97FB991FB6
:1011C00061F09F3F79F08795089512161306140673
:1011D000551FF2CF4695F1DF08C016161706180600
:1011E000991FF1CF86957105610508940895E894DB
:1011F000BB2766277727CB0197F908950BD0C4CF7B
:10120000B5DF28F0BADF18F0952309F0A6CFABCFF1
:101210001124EECFCADFA0F3959FD1F3950F50E0D4
:10122000551F629FF001729FBB27F00DB11D639F98
:10123000AA27F00DB11DAA1F649F6627B00DA11D3E
:10124000661F829F2227B00DA11D621F739FB00DE4
:10125000A11D621F839FA00D611D221F749F332754
:10126000A00D611D231F849F600D211D822F762FED
:101270006A2F11249F5750408AF0E1F088234AF0EA
:10128000EE0FFF1FBB1F661F771F881F9150504036
:10129000A9F79E3F510570F060CFAACF5F3FECF3F6
:1012A000983EDCF3869577956795B795F795E79522
:1012B0009F5FC1F7FE2B880F911D9695879597F933
:1012C0000895629FD001739FF001829FE00DF11D90
:1012D000649FE00DF11D929FF00D839FF00D749FB0
:1012E000F00D659FF00D9927729FB00DE11DF91F5C
:1012F000639FB00DE11DF91FBD01CF0111240895B9
:10130000A1E21A2EAA1BBB1BFD010DC0AA1FBB1F09
:10131000EE1FFF1FA217B307E407F50720F0A21B7B
:10132000B30BE40BF50B661F771F881F991F1A94E8
:1013300069F760957095809590959B01AC01BD0112
:10134000CF010895AA1BBB1B51E107C0AA1FBB1FF9
:10135000A617B70710F0A61BB70B881F991F5A9541
:10136000A9F780959095BC01CD010895F894FFCF21
:101370000A0D41444300202564002C45554C45523C
:101380000020257300200A0D43416C69623A202534
:0E13900078000A0D25783A0048656C6C6F00F5
:00000001FF
